{
  "_format": "hh-sol-artifact-1",
  "contractName": "Lottery",
  "sourceName": "contracts/Lottery.sol",
  "abi": [
    {
      "inputs": [],
      "stateMutability": "nonpayable",
      "type": "constructor"
    },
    {
      "inputs": [],
      "name": "SelectWinner",
      "outputs": [],
      "stateMutability": "nonpayable",
      "type": "function"
    },
    {
      "inputs": [],
      "name": "balance",
      "outputs": [
        {
          "internalType": "uint256",
          "name": "",
          "type": "uint256"
        }
      ],
      "stateMutability": "view",
      "type": "function"
    },
    {
      "inputs": [],
      "name": "manager",
      "outputs": [
        {
          "internalType": "address",
          "name": "",
          "type": "address"
        }
      ],
      "stateMutability": "view",
      "type": "function"
    },
    {
      "inputs": [
        {
          "internalType": "uint256",
          "name": "",
          "type": "uint256"
        }
      ],
      "name": "participants",
      "outputs": [
        {
          "internalType": "address payable",
          "name": "",
          "type": "address"
        }
      ],
      "stateMutability": "view",
      "type": "function"
    },
    {
      "stateMutability": "payable",
      "type": "receive"
    }
  ],
  "bytecode": "0x608060405234801561001057600080fd5b50336000806101000a81548173ffffffffffffffffffffffffffffffffffffffff021916908373ffffffffffffffffffffffffffffffffffffffff160217905550610710806100606000396000f3fe6080604052600436106100435760003560e01c806335c1d349146100c4578063481c6a7514610101578063b69ef8a81461012c578063bee0989014610157576100bf565b366100bf57662386f26fc10000341461005b57600080fd5b6001339080600181540180825580915050600190039060005260206000200160009091909190916101000a81548173ffffffffffffffffffffffffffffffffffffffff021916908373ffffffffffffffffffffffffffffffffffffffff1602179055005b600080fd5b3480156100d057600080fd5b506100eb60048036038101906100e691906104cf565b61016e565b6040516100f8919061053d565b60405180910390f35b34801561010d57600080fd5b506101166101ad565b6040516101239190610579565b60405180910390f35b34801561013857600080fd5b506101416101d1565b60405161014e91906105a3565b60405180910390f35b34801561016357600080fd5b5061016c610232565b005b6001818154811061017e57600080fd5b906000526020600020016000915054906101000a900473ffffffffffffffffffffffffffffffffffffffff1681565b60008054906101000a900473ffffffffffffffffffffffffffffffffffffffff1681565b60008060009054906101000a900473ffffffffffffffffffffffffffffffffffffffff1673ffffffffffffffffffffffffffffffffffffffff163373ffffffffffffffffffffffffffffffffffffffff161461022c57600080fd5b47905090565b60008054906101000a900473ffffffffffffffffffffffffffffffffffffffff1673ffffffffffffffffffffffffffffffffffffffff163373ffffffffffffffffffffffffffffffffffffffff161461028a57600080fd5b6003600180549050101561029d57600080fd5b6000806102a86103b3565b90506000600180549050826102bd91906105ed565b9050600181815481106102d3576102d261061e565b5b9060005260206000200160009054906101000a900473ffffffffffffffffffffffffffffffffffffffff1692508273ffffffffffffffffffffffffffffffffffffffff166108fc66b1a2bc2ec500009081150290604051600060405180830381858888f1935050505015801561034d573d6000803e3d6000fd5b50600067ffffffffffffffff8111156103695761036861064d565b5b6040519080825280602002602001820160405280156103975781602001602082028036833780820191505090505b50600190805190602001906103ad9291906103ed565b50505050565b600044426001805490506040516020016103cf9392919061069d565b6040516020818303038152906040528051906020012060001c905090565b828054828255906000526020600020908101928215610466579160200282015b828111156104655782518260006101000a81548173ffffffffffffffffffffffffffffffffffffffff021916908373ffffffffffffffffffffffffffffffffffffffff1602179055509160200191906001019061040d565b5b5090506104739190610477565b5090565b5b80821115610490576000816000905550600101610478565b5090565b600080fd5b6000819050919050565b6104ac81610499565b81146104b757600080fd5b50565b6000813590506104c9816104a3565b92915050565b6000602082840312156104e5576104e4610494565b5b60006104f3848285016104ba565b91505092915050565b600073ffffffffffffffffffffffffffffffffffffffff82169050919050565b6000610527826104fc565b9050919050565b6105378161051c565b82525050565b6000602082019050610552600083018461052e565b92915050565b6000610563826104fc565b9050919050565b61057381610558565b82525050565b600060208201905061058e600083018461056a565b92915050565b61059d81610499565b82525050565b60006020820190506105b86000830184610594565b92915050565b7f4e487b7100000000000000000000000000000000000000000000000000000000600052601260045260246000fd5b60006105f882610499565b915061060383610499565b925082610613576106126105be565b5b828206905092915050565b7f4e487b7100000000000000000000000000000000000000000000000000000000600052603260045260246000fd5b7f4e487b7100000000000000000000000000000000000000000000000000000000600052604160045260246000fd5b6000819050919050565b61069761069282610499565b61067c565b82525050565b60006106a98286610686565b6020820191506106b98285610686565b6020820191506106c98284610686565b60208201915081905094935050505056fea26469706673582212209b2f1d984b25b33d390f269dd66d86dc5c7ad99542e49f95282a8e883fd6635f64736f6c63430008130033",
  "linkReferences": {},
  "deployedLinkReferences": {}
}