{
  "_format": "hh-sol-artifact-1",
  "contractName": "Lottery",
  "sourceName": "contracts/Lottery.sol",
  "abi": [
    {
      "inputs": [],
      "stateMutability": "nonpayable",
      "type": "constructor"
    },
    {
      "inputs": [],
      "name": "SelectWinner",
      "outputs": [],
      "stateMutability": "nonpayable",
      "type": "function"
    },
    {
      "inputs": [],
      "name": "allPlayers",
      "outputs": [
        {
          "internalType": "address payable[]",
          "name": "",
          "type": "address[]"
        }
      ],
      "stateMutability": "view",
      "type": "function"
    },
    {
      "inputs": [],
      "name": "balance",
      "outputs": [
        {
          "internalType": "uint256",
          "name": "",
          "type": "uint256"
        }
      ],
      "stateMutability": "view",
      "type": "function"
    },
    {
      "inputs": [],
      "name": "generate",
      "outputs": [
        {
          "internalType": "uint256",
          "name": "",
          "type": "uint256"
        }
      ],
      "stateMutability": "view",
      "type": "function"
    },
    {
      "inputs": [],
      "name": "manager",
      "outputs": [
        {
          "internalType": "address",
          "name": "",
          "type": "address"
        }
      ],
      "stateMutability": "view",
      "type": "function"
    },
    {
      "inputs": [
        {
          "internalType": "uint256",
          "name": "",
          "type": "uint256"
        }
      ],
      "name": "players",
      "outputs": [
        {
          "internalType": "address payable",
          "name": "",
          "type": "address"
        }
      ],
      "stateMutability": "view",
      "type": "function"
    },
    {
      "inputs": [],
      "name": "winner",
      "outputs": [
        {
          "internalType": "address payable",
          "name": "",
          "type": "address"
        }
      ],
      "stateMutability": "view",
      "type": "function"
    },
    {
      "stateMutability": "payable",
      "type": "receive"
    }
  ],
  "bytecode": "0x608060405234801561001057600080fd5b50336000806101000a81548173ffffffffffffffffffffffffffffffffffffffff021916908373ffffffffffffffffffffffffffffffffffffffff160217905550610b41806100606000396000f3fe6080604052600436106100745760003560e01c8063b69ef8a81161004e578063b69ef8a814610177578063bee09890146101a2578063dfbf53ae146101b9578063f71d96cb146101e4576100f1565b80632a1bbc34146100f6578063481c6a7514610121578063b0ec80941461014c576100f1565b366100f157670de0b6b3a7640000341461008d57600080fd5b6001339080600181540180825580915050600190039060005260206000200160009091909190916101000a81548173ffffffffffffffffffffffffffffffffffffffff021916908373ffffffffffffffffffffffffffffffffffffffff1602179055005b600080fd5b34801561010257600080fd5b5061010b610221565b6040516101189190610715565b60405180910390f35b34801561012d57600080fd5b5061013661025b565b6040516101439190610771565b60405180910390f35b34801561015857600080fd5b5061016161027f565b60405161016e919061085c565b60405180910390f35b34801561018357600080fd5b5061018c61030d565b6040516101999190610715565b60405180910390f35b3480156101ae57600080fd5b506101b76103a4565b005b3480156101c557600080fd5b506101ce6105f0565b6040516101db919061088d565b60405180910390f35b3480156101f057600080fd5b5061020b600480360381019061020691906108d9565b610616565b604051610218919061088d565b60405180910390f35b6000444260018054905060405160200161023d93929190610927565b6040516020818303038152906040528051906020012060001c905090565b60008054906101000a900473ffffffffffffffffffffffffffffffffffffffff1681565b6060600180548060200260200160405190810160405280929190818152602001828054801561030357602002820191906000526020600020905b8160009054906101000a900473ffffffffffffffffffffffffffffffffffffffff1673ffffffffffffffffffffffffffffffffffffffff16815260200190600101908083116102b9575b5050505050905090565b60008060009054906101000a900473ffffffffffffffffffffffffffffffffffffffff1673ffffffffffffffffffffffffffffffffffffffff163373ffffffffffffffffffffffffffffffffffffffff161461039e576040517f08c379a0000000000000000000000000000000000000000000000000000000008152600401610395906109c1565b60405180910390fd5b47905090565b60008054906101000a900473ffffffffffffffffffffffffffffffffffffffff1673ffffffffffffffffffffffffffffffffffffffff163373ffffffffffffffffffffffffffffffffffffffff1614610432576040517f08c379a0000000000000000000000000000000000000000000000000000000008152600401610429906109c1565b60405180910390fd5b6003600180549050101561047b576040517f08c379a000000000000000000000000000000000000000000000000000000000815260040161047290610a2d565b60405180910390fd5b6000610485610221565b905060006001805490508261049a9190610a7c565b9050600181815481106104b0576104af610aad565b5b9060005260206000200160009054906101000a900473ffffffffffffffffffffffffffffffffffffffff16600260006101000a81548173ffffffffffffffffffffffffffffffffffffffff021916908373ffffffffffffffffffffffffffffffffffffffff160217905550600260009054906101000a900473ffffffffffffffffffffffffffffffffffffffff1673ffffffffffffffffffffffffffffffffffffffff166108fc671bc16d674ec800009081150290604051600060405180830381858888f1935050505015801561058b573d6000803e3d6000fd5b50600067ffffffffffffffff8111156105a7576105a6610adc565b5b6040519080825280602002602001820160405280156105d55781602001602082028036833780820191505090505b50600190805190602001906105eb929190610655565b505050565b600260009054906101000a900473ffffffffffffffffffffffffffffffffffffffff1681565b6001818154811061062657600080fd5b906000526020600020016000915054906101000a900473ffffffffffffffffffffffffffffffffffffffff1681565b8280548282559060005260206000209081019282156106ce579160200282015b828111156106cd5782518260006101000a81548173ffffffffffffffffffffffffffffffffffffffff021916908373ffffffffffffffffffffffffffffffffffffffff16021790555091602001919060010190610675565b5b5090506106db91906106df565b5090565b5b808211156106f85760008160009055506001016106e0565b5090565b6000819050919050565b61070f816106fc565b82525050565b600060208201905061072a6000830184610706565b92915050565b600073ffffffffffffffffffffffffffffffffffffffff82169050919050565b600061075b82610730565b9050919050565b61076b81610750565b82525050565b60006020820190506107866000830184610762565b92915050565b600081519050919050565b600082825260208201905092915050565b6000819050602082019050919050565b60006107c382610730565b9050919050565b6107d3816107b8565b82525050565b60006107e583836107ca565b60208301905092915050565b6000602082019050919050565b60006108098261078c565b6108138185610797565b935061081e836107a8565b8060005b8381101561084f57815161083688826107d9565b9750610841836107f1565b925050600181019050610822565b5085935050505092915050565b6000602082019050818103600083015261087681846107fe565b905092915050565b610887816107b8565b82525050565b60006020820190506108a2600083018461087e565b92915050565b600080fd5b6108b6816106fc565b81146108c157600080fd5b50565b6000813590506108d3816108ad565b92915050565b6000602082840312156108ef576108ee6108a8565b5b60006108fd848285016108c4565b91505092915050565b6000819050919050565b61092161091c826106fc565b610906565b82525050565b60006109338286610910565b6020820191506109438285610910565b6020820191506109538284610910565b602082019150819050949350505050565b600082825260208201905092915050565b7f596f7520617265206e6f7420746865206d616e61676572000000000000000000600082015250565b60006109ab601783610964565b91506109b682610975565b602082019050919050565b600060208201905081810360008301526109da8161099e565b9050919050565b7f506c6179657273206d7573742062652033000000000000000000000000000000600082015250565b6000610a17601183610964565b9150610a22826109e1565b602082019050919050565b60006020820190508181036000830152610a4681610a0a565b9050919050565b7f4e487b7100000000000000000000000000000000000000000000000000000000600052601260045260246000fd5b6000610a87826106fc565b9150610a92836106fc565b925082610aa257610aa1610a4d565b5b828206905092915050565b7f4e487b7100000000000000000000000000000000000000000000000000000000600052603260045260246000fd5b7f4e487b7100000000000000000000000000000000000000000000000000000000600052604160045260246000fdfea26469706673582212207b896f194db2f2e1a3276acfc0ee741c204ba370053649fddcf847580d1b9ab764736f6c63430008130033",
  "linkReferences": {},
  "deployedLinkReferences": {}
}