{
  "_format": "hh-sol-artifact-1",
  "contractName": "Lottery",
  "sourceName": "contracts/Lottery.sol",
  "abi": [
    {
      "inputs": [],
      "stateMutability": "nonpayable",
      "type": "constructor"
    },
    {
      "inputs": [],
      "name": "SelectWinner",
      "outputs": [],
      "stateMutability": "nonpayable",
      "type": "function"
    },
    {
      "inputs": [],
      "name": "allPlayers",
      "outputs": [
        {
          "internalType": "address payable[]",
          "name": "",
          "type": "address[]"
        }
      ],
      "stateMutability": "view",
      "type": "function"
    },
    {
      "inputs": [],
      "name": "balance",
      "outputs": [
        {
          "internalType": "uint256",
          "name": "",
          "type": "uint256"
        }
      ],
      "stateMutability": "view",
      "type": "function"
    },
    {
      "inputs": [],
      "name": "generate",
      "outputs": [
        {
          "internalType": "uint256",
          "name": "",
          "type": "uint256"
        }
      ],
      "stateMutability": "view",
      "type": "function"
    },
    {
      "inputs": [],
      "name": "manager",
      "outputs": [
        {
          "internalType": "address",
          "name": "",
          "type": "address"
        }
      ],
      "stateMutability": "view",
      "type": "function"
    },
    {
      "inputs": [
        {
          "internalType": "uint256",
          "name": "",
          "type": "uint256"
        }
      ],
      "name": "players",
      "outputs": [
        {
          "internalType": "address payable",
          "name": "",
          "type": "address"
        }
      ],
      "stateMutability": "view",
      "type": "function"
    },
    {
      "inputs": [],
      "name": "winner",
      "outputs": [
        {
          "internalType": "address payable",
          "name": "",
          "type": "address"
        }
      ],
      "stateMutability": "view",
      "type": "function"
    },
    {
      "stateMutability": "payable",
      "type": "receive"
    }
  ],
  "bytecode": "0x608060405234801561001057600080fd5b50336000806101000a81548173ffffffffffffffffffffffffffffffffffffffff021916908373ffffffffffffffffffffffffffffffffffffffff160217905550610b3f806100606000396000f3fe6080604052600436106100745760003560e01c8063b69ef8a81161004e578063b69ef8a814610176578063bee09890146101a1578063dfbf53ae146101b8578063f71d96cb146101e3576100f0565b80632a1bbc34146100f5578063481c6a7514610120578063b0ec80941461014b576100f0565b366100f057662386f26fc10000341461008c57600080fd5b6001339080600181540180825580915050600190039060005260206000200160009091909190916101000a81548173ffffffffffffffffffffffffffffffffffffffff021916908373ffffffffffffffffffffffffffffffffffffffff1602179055005b600080fd5b34801561010157600080fd5b5061010a610220565b6040516101179190610713565b60405180910390f35b34801561012c57600080fd5b5061013561025a565b604051610142919061076f565b60405180910390f35b34801561015757600080fd5b5061016061027e565b60405161016d919061085a565b60405180910390f35b34801561018257600080fd5b5061018b61030c565b6040516101989190610713565b60405180910390f35b3480156101ad57600080fd5b506101b66103a3565b005b3480156101c457600080fd5b506101cd6105ee565b6040516101da919061088b565b60405180910390f35b3480156101ef57600080fd5b5061020a600480360381019061020591906108d7565b610614565b604051610217919061088b565b60405180910390f35b6000444260018054905060405160200161023c93929190610925565b6040516020818303038152906040528051906020012060001c905090565b60008054906101000a900473ffffffffffffffffffffffffffffffffffffffff1681565b6060600180548060200260200160405190810160405280929190818152602001828054801561030257602002820191906000526020600020905b8160009054906101000a900473ffffffffffffffffffffffffffffffffffffffff1673ffffffffffffffffffffffffffffffffffffffff16815260200190600101908083116102b8575b5050505050905090565b60008060009054906101000a900473ffffffffffffffffffffffffffffffffffffffff1673ffffffffffffffffffffffffffffffffffffffff163373ffffffffffffffffffffffffffffffffffffffff161461039d576040517f08c379a0000000000000000000000000000000000000000000000000000000008152600401610394906109bf565b60405180910390fd5b47905090565b60008054906101000a900473ffffffffffffffffffffffffffffffffffffffff1673ffffffffffffffffffffffffffffffffffffffff163373ffffffffffffffffffffffffffffffffffffffff1614610431576040517f08c379a0000000000000000000000000000000000000000000000000000000008152600401610428906109bf565b60405180910390fd5b6003600180549050101561047a576040517f08c379a000000000000000000000000000000000000000000000000000000000815260040161047190610a2b565b60405180910390fd5b6000610484610220565b90506000600180549050826104999190610a7a565b9050600181815481106104af576104ae610aab565b5b9060005260206000200160009054906101000a900473ffffffffffffffffffffffffffffffffffffffff16600260006101000a81548173ffffffffffffffffffffffffffffffffffffffff021916908373ffffffffffffffffffffffffffffffffffffffff160217905550600260009054906101000a900473ffffffffffffffffffffffffffffffffffffffff1673ffffffffffffffffffffffffffffffffffffffff166108fc66b1a2bc2ec500009081150290604051600060405180830381858888f19350505050158015610589573d6000803e3d6000fd5b50600067ffffffffffffffff8111156105a5576105a4610ada565b5b6040519080825280602002602001820160405280156105d35781602001602082028036833780820191505090505b50600190805190602001906105e9929190610653565b505050565b600260009054906101000a900473ffffffffffffffffffffffffffffffffffffffff1681565b6001818154811061062457600080fd5b906000526020600020016000915054906101000a900473ffffffffffffffffffffffffffffffffffffffff1681565b8280548282559060005260206000209081019282156106cc579160200282015b828111156106cb5782518260006101000a81548173ffffffffffffffffffffffffffffffffffffffff021916908373ffffffffffffffffffffffffffffffffffffffff16021790555091602001919060010190610673565b5b5090506106d991906106dd565b5090565b5b808211156106f65760008160009055506001016106de565b5090565b6000819050919050565b61070d816106fa565b82525050565b60006020820190506107286000830184610704565b92915050565b600073ffffffffffffffffffffffffffffffffffffffff82169050919050565b60006107598261072e565b9050919050565b6107698161074e565b82525050565b60006020820190506107846000830184610760565b92915050565b600081519050919050565b600082825260208201905092915050565b6000819050602082019050919050565b60006107c18261072e565b9050919050565b6107d1816107b6565b82525050565b60006107e383836107c8565b60208301905092915050565b6000602082019050919050565b60006108078261078a565b6108118185610795565b935061081c836107a6565b8060005b8381101561084d57815161083488826107d7565b975061083f836107ef565b925050600181019050610820565b5085935050505092915050565b6000602082019050818103600083015261087481846107fc565b905092915050565b610885816107b6565b82525050565b60006020820190506108a0600083018461087c565b92915050565b600080fd5b6108b4816106fa565b81146108bf57600080fd5b50565b6000813590506108d1816108ab565b92915050565b6000602082840312156108ed576108ec6108a6565b5b60006108fb848285016108c2565b91505092915050565b6000819050919050565b61091f61091a826106fa565b610904565b82525050565b6000610931828661090e565b602082019150610941828561090e565b602082019150610951828461090e565b602082019150819050949350505050565b600082825260208201905092915050565b7f596f7520617265206e6f7420746865206d616e61676572000000000000000000600082015250565b60006109a9601783610962565b91506109b482610973565b602082019050919050565b600060208201905081810360008301526109d88161099c565b9050919050565b7f506c6179657273206d7573742062652033000000000000000000000000000000600082015250565b6000610a15601183610962565b9150610a20826109df565b602082019050919050565b60006020820190508181036000830152610a4481610a08565b9050919050565b7f4e487b7100000000000000000000000000000000000000000000000000000000600052601260045260246000fd5b6000610a85826106fa565b9150610a90836106fa565b925082610aa057610a9f610a4b565b5b828206905092915050565b7f4e487b7100000000000000000000000000000000000000000000000000000000600052603260045260246000fd5b7f4e487b7100000000000000000000000000000000000000000000000000000000600052604160045260246000fdfea26469706673582212206cf79409123c794de42488a25f4c82c9a0531da85dca1d06b71206f092344dc564736f6c63430008130033",
  "linkReferences": {},
  "deployedLinkReferences": {}
}